:020000040000fa
:080000000002040000000000f2
:020000040000fa
:04000800dc03000015
:020000040000fa
:04000c00520300009b
:020000040000fa
:040010007203000077
:020000040000fa
:040014001c040000c8
:020000040000fa
:04001800fc030000e5
:020000040000fa
:04001c007e0400005e
:020000040000fa
:040020009203000047
:020000040000fa
:040024007e04000056
:020000040000fa
:040028007e04000052
:020000040000fa
:04002c007e0400004e
:020000040000fa
:040030007e0400004a
:020000040000fa
:040034007e04000046
:020000040000fa
:040038007e04000042
:020000040000fa
:04003c007e0400003e
:020000040000fa
:040040007e0400003a
:020000040000fa
:040044007e04000036
:020000040000fa
:040048007e04000032
:020000040000fa
:04004c007e0400002e
:020000040000fa
:040050007e0400002a
:020000040000fa
:040054007e04000026
:020000040000fa
:040058007e04000022
:020000040000fa
:04005c007e0400001e
:020000040000fa
:040060007e0400001a
:020000040000fa
:040064007e04000016
:020000040000fa
:040068007e04000012
:020000040000fa
:04006c007e0400000e
:020000040000fa
:040070007e0400000a
:020000040000fa
:040074007e04000006
:020000040000fa
:040078007e04000002
:020000040000fa
:04007c007e040000fe
:020000040000fa
:040080007e040000fa
:020000040000fa
:040084007e040000f6
:020000040000fa
:040088007e040000f2
:020000040000fa
:04008c007e040000ee
:020000040000fa
:040090007e040000ea
:020000040000fa
:040094007e040000e6
:020000040000fa
:040098007e040000e2
:020000040000fa
:04009c007e040000de
:020000040000fa
:0400a0007e040000da
:020000040000fa
:0400a4007e040000d6
:020000040000fa
:0400a8007e040000d2
:020000040000fa
:0400ac007e040000ce
:020000040000fa
:0400b0007e040000ca
:020000040000fa
:0400b4007e040000c6
:020000040000fa
:0400b8007e040000c2
:020000040000fa
:0400bc007e040000be
:020000040000fa
:0400c0007e040000ba
:020000040000fa
:0400c4007e040000b6
:020000040000fa
:0400c8007e040000b2
:020000040000fa
:0400cc007e040000ae
:020000040000fa
:0400d0007e040000aa
:020000040000fa
:0400d4007e040000a6
:020000040000fa
:0400d8007e040000a2
:020000040000fa
:0400dc007e0400009e
:020000040000fa
:0400e0007e0400009a
:020000040000fa
:0400e4007e04000096
:020000040000fa
:0400e8007e04000092
:020000040000fa
:0400ec007e0400008e
:020000040000fa
:0400f0007e0400008a
:020000040000fa
:0400f4007e04000086
:020000040000fa
:0400f8007e04000082
:020000040000fa
:0400fc007e0400007e
:020000040000fa
:040100007e04000079
:020000040000fa
:040104007e04000075
:020000040000fa
:040108007e04000071
:020000040000fa
:04010c007e0400006d
:020000040000fa
:040110007e04000069
:020000040000fa
:040114007e04000065
:020000040000fa
:040118007e04000061
:020000040000fa
:04011c007e0400005d
:020000040000fa
:040120007e04000059
:020000040000fa
:040124007e04000055
:020000040000fa
:040128007e04000051
:020000040000fa
:04012c007e0400004d
:020000040000fa
:040130007e04000049
:020000040000fa
:040134007e04000045
:020000040000fa
:040138007e04000041
:020000040000fa
:04013c007e0400003d
:020000040000fa
:040140007e04000039
:020000040000fa
:040144007e04000035
:020000040000fa
:040148007e04000031
:020000040000fa
:04014c007e0400002d
:020000040000fa
:040150007e04000029
:020000040000fa
:040154007e04000025
:020000040000fa
:040158007e04000021
:020000040000fa
:04015c007e0400001d
:020000040000fa
:040160007e04000019
:020000040000fa
:040164007e04000015
:020000040000fa
:040168007e04000011
:020000040000fa
:04016c007e0400000d
:020000040000fa
:040170007e04000009
:020000040000fa
:040174007e04000005
:020000040000fa
:040178007e04000001
:020000040000fa
:04017c007e040000fd
:020000040000fa
:040180007e040000f9
:020000040000fa
:040184007e040000f5
:020000040000fa
:040188007e040000f1
:020000040000fa
:04018c007e040000ed
:020000040000fa
:040190007e040000e9
:020000040000fa
:040194007e040000e5
:020000040000fa
:040198007e040000e1
:020000040000fa
:04019c007e040000dd
:020000040000fa
:0401a0007e040000d9
:020000040000fa
:0401a4007e040000d5
:020000040000fa
:0401a8007e040000d1
:020000040000fa
:0401ac007e040000cd
:020000040000fa
:0401b0007e040000c9
:020000040000fa
:0401b4007e040000c5
:020000040000fa
:0401b8007e040000c1
:020000040000fa
:0401bc007e040000bd
:020000040000fa
:0401c0007e040000b9
:020000040000fa
:0401c4007e040000b5
:020000040000fa
:0401c8007e040000b1
:020000040000fa
:0401cc007e040000ad
:020000040000fa
:0401d0007e040000a9
:020000040000fa
:0401d4007e040000a5
:020000040000fa
:0401d8007e040000a1
:020000040000fa
:0401dc007e0400009d
:020000040000fa
:0401e0007e04000099
:020000040000fa
:0401e4007e04000095
:020000040000fa
:0401e8007e04000091
:020000040000fa
:0401ec007e0400008d
:020000040000fa
:0401f0007e04000089
:020000040000fa
:0401f4007e04000085
:020000040000fa
:0401f8007e04000081
:020000040000fa
:0401fc007e0400007d
:020000040000fa
:040200007e04000078
:020000040000fa
:040204007e04000074
:020000040000fa
:040208007e04000070
:020000040000fa
:04020c007e0400006c
:020000040000fa
:040210007e04000068
:020000040000fa
:040214007e04000064
:020000040000fa
:040218007e04000060
:020000040000fa
:04021c007e0400005c
:020000040000fa
:040220007e04000058
:020000040000fa
:040224007e04000054
:020000040000fa
:040228007e04000050
:020000040000fa
:04022c007e0400004c
:020000040000fa
:040230003e04000088
:020000040000fa
:040234005e04000064
:020000040000fa
:040238007e04000040
:020000040000fa
:04023c007e0400003c
:020000040000fa
:040240007e04000038
:020000040000fa
:040244007e04000034
:020000040000fa
:040248007e04000030
:020000040000fa
:04024c007e0400002c
:020000040000fa
:040250007e04000028
:020000040000fa
:040254007e04000024
:020000040000fa
:040258007e04000020
:020000040000fa
:04025c007e0400001c
:020000040000fa
:040260007e04000018
:020000040000fa
:040264007e04000014
:020000040000fa
:040268007e04000010
:020000040000fa
:04026c007e0400000c
:020000040000fa
:040270007e04000008
:020000040000fa
:040274007e04000004
:020000040000fa
:040278007e04000000
:020000040000fa
:04027c007e040000fc
:020000040000fa
:040280007e040000f8
:020000040000fa
:040284007e040000f4
:020000040000fa
:040288007e040000f0
:020000040000fa
:04028c007e040000ec
:020000040000fa
:040290007e040000e8
:020000040000fa
:040294007e040000e4
:020000040000fa
:040298007e040000e0
:020000040000fa
:04029c007e040000dc
:020000040000fa
:0402a0007e040000d8
:020000040000fa
:0402a4007e040000d4
:020000040000fa
:0402a8007e040000d0
:020000040000fa
:0402ac007e040000cc
:020000040000fa
:0402b0007e040000c8
:020000040000fa
:0402b4007e040000c4
:020000040000fa
:0402b8007e040000c0
:020000040000fa
:0402bc007e040000bc
:020000040000fa
:0402c0007e040000b8
:020000040000fa
:0402c4007e040000b4
:020000040000fa
:0402c8007e040000b0
:020000040000fa
:0402cc007e040000ac
:020000040000fa
:0402d0007e040000a8
:020000040000fa
:0402d4007e040000a4
:020000040000fa
:0402d8007e040000a0
:020000040000fa
:0402dc007e0400009c
:020000040000fa
:0402e0007e04000098
:020000040000fa
:0402e4007e04000094
:020000040000fa
:0402e8007e04000090
:020000040000fa
:0402ec007e0400008c
:020000040000fa
:0402f0007e04000088
:020000040000fa
:0402f4007e04000084
:020000040000fa
:0402f8007e04000080
:020000040000fa
:0402fc007e0400007c
:020000040000fa
:040300007e04000077
:020000040000fa
:040304007e04000073
:020000040000fa
:040308007e0400006f
:020000040000fa
:04030c007e0400006b
:020000040000fa
:040310007e04000067
:020000040000fa
:040314007e04000063
:020000040000fa
:040318007e0400005f
:020000040000fa
:04031c007e0400005b
:020000040000fa
:10040000ef0221000eff21000e0188000000000015
:10041000000020000000e000020032000001200087
:100420002002880014000700360107000000e000e9
:1004300003003a0080a120000100200002003700e4
:100440000000200001002000810f70000100320038
:100450000f000700000020000000e0000200320052
:100460000000020000000000360902000000000049
:100470000040da000000fe00400320000000e00021
:1004800002003200002020009001880000000600d9
:10049000a1028800800478000000eb001f003700f4
:1004a000e284440054a0b4009905ba00e2844400f8
:1004b00054a0b4009906ba00e284440054a0b400e9
:1004c0000006eb00476fde00fd07b200ae018800ba
:1004d000636ce10003003a000ad801000000eb0061
:1004e0000e003700606ce10008003a00004deb00a0
:1004f0000a05e800020039003420ec000af0a000f0
:100500008b05e900f9ff3e00040037006168e10057
:10051000010032000086eb000b00070019c7ba008b
:100520001905ba000e04e00003003a000a00e000da
:10053000dbff3a0000000600fe07b200ae028800b2
:100540008a047800f5ff37000cd0a300e20f4d00bd
:100550001c003b0089027800354dba000a05e8000e
:10056000020039003420ec000af0a0008b05e900fd
:100570000f003200254dba000a05e80002003900dc
:100580003420ec000af0a0008b05e90008003200de
:100590000c00e0000600320015cdba000a05e800a4
:1005a000020039003420ec000af0a0008b05e900bd
:1005b0008984e80054a0b4000b00e000e2ff3a0098
:1005c000000006009902ba00055d78008b05e9007d
:1005d000f7ff3200c82ade00055d78008b05e900d0
:1005e000f3ff32000c00e000f1ff320019ddba0029
:1005f000eeff3700000000000000000000000000d7
:1006000000000000000000000000000000000000ea
:1006100000000000000000000000000000000000da
:1006200000000000000000000000000000000000ca
:1006300000000000000000000000000000000000ba
:1006400000000000000000000000000000000000aa
:10065000000000000000000000000000000000009a
:10066000000000000000000000000000000000008a
:10067000000000000000000000000000000000007a
:10068000000000000000000000000000000000006a
:10069000000000000000000000000000000000005a
:1006a000000000003600f800809fbe00829fbe0060
:1006b000849fbe00869fbe000000fa00c068a900ab
:1006c000200020006b0307000080fa004f03be00eb
:1006d0004f02be004f01be004f00be003600f900c1
:1006e000004006003600f800809fbe00829fbe00da
:1006f000849fbe00869fbe000000fa00c608a900c5
:10070000700020005b0307000080fa004f03be006a
:100710004f02be004f01be004f00be003600f90080
:10072000004006003600f800809fbe00829fbe0099
:10073000849fbe00869fbe000000fa002046800015
:10074000700060000000e00003003200c488a900cf
:10075000a00020004703070021468000000220007f
:10076000008060000000e00003003200c4a8a9007f
:10077000900020003f030700214680000010200069
:10078000008060000000e00003003200c508a900fe
:10079000c000200037030700204680006100600091
:1007a0000000e00003003200c408a900b0002000ef
:1007b00030030700ffff37003600f800809fbe00bf
:1007c000829fbe00849fbe00869fbe000000fa008c
:1007d000c028a9000000eb00260307000080fa00f3
:1007e0004f03be004f02be004f01be004f00be00cf
:1007f0003600f900004006003600f800809fbe0079
:10080000829fbe00849fbe00869fbe000000fa004b
:10081000c088a90030002000160307000080fa00fd
:100820004f03be004f02be004f01be004f00be008e
:100830003600f900004006003600f800809fbe0038
:10084000829fbe00849fbe00869fbe000000fa000b
:100850000f030700c048a90010002000050307008f
:100860000080fa004f03be004f02be004f01be00e1
:100870004f00be003600f900004006003600f800c8
:10088000809fbe00829fbe00849fbe00869fbe00e8
:100890000000fa0040818000000001001048a9001b
:1008a0000080fa004f03be004f02be004f01be00a1
:1008b0004f00be003600f900004006003600f80088
:1008c000809fbe00829fbe00849fbe00869fbe00a8
:1008d0000000fa0050818000000001001068a900ab
:1008e0000080fa004f03be004f02be004f01be0061
:1008f0004f00be003600f900004006000040da005c
:080900000000fe0000000500ec
:020000040000fa
:1009080094050000b0050000c0050000c8050000ff
:10091800e0050000e80500000006000008060000e9
:10092800100600005806000090060000b8040000f9
:10093800d0040000e804000000050000fa060000ea
:10094800c8060000180500005a0500002c07000022
:10095800000000000000000000000000000000008f
:08096800000000000000000087
:020000040000fa
:100970000000fa00d00f800099800a0000000000fb
:100980000080fb0000f0a7000000ea000000ea0081
:100990004f00de00004078000080fa0000000600f2
:1009a0000000fa00d00f800088800a0000000000dc
:1009b0000080fb0000f0a7000000ea000000ea0051
:1009c0004f00de00004078000080fa0000000600c2
:1009d0000000fa00d00f800011800a000000000023
:1009e0000080fb0000f0a7000000ea000000ea0021
:1009f0004f00de00004078000080fa000000060092
:100a00000000fa00d00f800000800a000000000003
:100a10000080fb0000f0a7000000ea000000ea00f0
:100a20004f00de00004078000080fa000000060061
:100a30000400fa00100798000040eb00004f780017
:100a40001e0090000000e00003003200e10f5000a3
:100a50000b00320014003700c00e800000800a0036
:100a6000000000000080fb0000f0a7000000ea008a
:100a70000000ea004f00de00004f78000a00370057
:100a8000c00e800011800a00000000000080fb0002
:100a900000f0a7000000ea000000ea004f00de00be
:100aa000004f7800000000001e4078000080fa002f
:100ab000000006000400fa00100798000040eb0058
:100ac000004f78001e0090000000e000030032009c
:100ad000e10f50000900320010003700c00e800006
:100ae0006100600000f0a7000000ea000000e900db
:100af0004f00de00004f780008003700c00e800075
:100b00006200600000f0a7000000ea000000e900b9
:100b10004f00de00004f7800000000001e4078000b
:100b20000080fa00000006000000fa00d221ef0069
:100b3000017620000000eb00c7000700617620006e
:100b400010002000c40007001048a9003048a80089
:100b50001068a9003068a8000080fa0000000600b4
:100b60000000fa00d221ef003048a9001048a90087
:100b70003068a9001068a9000080fa000000060093
:100b80000000fa00d321a8000080fa00000006004f
:100b90000000fa00a00e800088800a00000000001b
:100ba0000080fb0000f0a7000000ea000000ea005f
:100bb0004f00de00004078000080fa0000000600d0
:100bc0000000fa00d321a9000080fa00000006000e
:100bd0000000fa00a00e800099800a0000000000ca
:100be0000080fb0000f0a7000000ea000000ea001f
:100bf0004f00de00004078000080fa000000060090
:100c00000000fa00d301a8000080fa0000000600ee
:100c10000000fa00d301a9000080fa0000000600dd
:100c20000200fa0030002000000f7800a10e8000c2
:100c300000002800008060000000e0000300320097
:100c400040002000000f780016003700a00e800042
:100c5000dc800a00000000000080fb00e10f500073
:100c600007003200e20f5000080032000000e000f0
:100c700009003a000000eb00000f7800090037007f
:100c800020002000000f7800060037001000200030
:100c9000000f78000300370030002000000f7800bc
:100ca000000000001e0078000080fa00000006002e
:100cb0000600fa0010079800210798000000eb00da
:100cc000000f78000e00370035ff07000004a20077
:100cd0000004e0000e003200f10f80001e009000c2
:100ce000010878001e0090000080e80010079800be
:100cf0002e0090000000e900200798001e0fe80079
:100d00002e0090000000e000efff3a0001003700e5
:100d1000000000001e0078000080fa0000000600bd
:100d20000600fa0010079800210798000000eb0069
:100d3000000f78000e00370025ff07000004a20016
:100d40000004e0000e0032001e0090001000780049
:100d5000e00f88001e0090000080e8001007980057
:100d60002e0090000000e900200798001e0fe80008
:100d70002e0090000000e000efff3a000100370075
:100d8000000000001e0078000080fa00000006004d
:100d90000600fa0010079800210798000040eb00b9
:100da000004f78001e009000e10f50000d003a0047
:100db000100020003fff07000004e00006003200a2
:100dc0002e00900010007800e00e880010c0b300e4
:100dd000004f7800040037000040eb00004f78001f
:100de00001003700000000001e4078000080fa007b
:100df000000006000600fa0010079800210798007e
:100e00000040eb00004f78001e0090000000e00062
:100e10000d003a000000eb0005ff07000004e000b1
:100e200006003200d10e80002e00900001087800ec
:100e300010c0b300004f7800040037000040eb0002
:100e4000004f780001003700000000001e407800cd
:100e50000080fa00000006000400fa00000f78008d
:100e6000110798001e0078000000e0000300320027
:100e7000e10f5000070032000f0037001e00900005
:100e80000000e000090032009e00900041818800cf
:100e9000090037001e0090000000e000050032004d
:100ea0009e00900051818800030037000000000080
:100eb00001003700000000000080fa00000006007a
:100ec0000000fa000080fa00000006000000fa00ae
:100ed0000080fa00000006000400fa0010079800e5
:100ee0000040eb00004f78001e0090000000e00082
:100ef00002003d0010c0b300004f78001e40780093
:100f00000080fa00000006000400fa0010079800b4
:100f10000040eb00004f78009e009000000024008d
:100f2000008060000000e0000200320010c0b3004a
:100f3000004f78001e4078000080fa000000060094
:100f40000400fa00100798000040eb00004f780002
:100f50009e00900000202000008060000000e00063
:100f60000200320010c0b300004f78001e4078002d
:100f70000080fa00000006000400fa001007980044
:100f80000040eb00004f78009e0090000008200019
:100f9000008060000000e0000200320010c0b300da
:100fa000004f78001e4078000080fa000000060024
:100fb0000400fa00100798000040eb00004f780092
:100fc0009e00900000042000008060000000e0000f
:100fd0000200320010c0b300004f78001e407800bd
:100fe0000080fa00000006000400fa0010079800d4
:100ff0000040eb00004f78001e0090007000600081
:101000000000e0000200320010c0b300004f780082
:101010001e4078000080fa00000006000200fa007e
:10102000000f78009e80ea00007c80000080600055
:10103000007c88000080fa00000006000000fa0032
:10104000007c80000080fa00000006000200fa0028
:10105000faff0700000f78001e0078009eff0700cf
:101060000004e0000200320000002800ebff07004f
:101070001e007800a4ff07000004e0000200320018
:1010800000002400e5ff07001e007800acff070009
:101090000004e0000200320000202000dfff070013
:1010a0001e007800b4ff07000004e00002003200d8
:1010b00000082000d9ff07001e007800bcff0700d1
:1010c0000004e0000200320000042000d3ff07000b
:1010d0001e007800c4ff07000004e0000200320098
:1010e00000012000cdff07000080fa00000006008c
:1010f0000000fa00802fef000080fa0000000600d8
:101100000000fa00217c8000000027008080600041
:1011100000002100808f500006003200217c8000fa
:10112000000027008080600000002300808f5000b6
:101130001c003a0085cfbf008080fb0080ff2f009d
:101140000081600080072000a109200053f82000e2
:101150008049780081497800824978001200200097
:10116000600420007105200043f8200080497800c9
:10117000814978008249780000000000207c8000ce
:10118000610060000000e000fcff3a000000000089
:10119000217c800000022000008060000000e00050
:1011a000fbff320010002300307c88006009200023
:1011b000407c880010042000507c88001010200023
:1011c000707c880060092000807c8800100420006a
:1011d000907c8800b82fef00ba2fef00be2fef00f1
:1011e000002def00a42fef00a62fef00aa2fef0095
:1011f000ae2fef00b02fef00b22fef0072002000f3
:1012000080072000a109200053f8200080497800c1
:1012100081497800824978000001eb0060042000d9
:101220007105200043f8200080497800814978004a
:10123000824978000080fa00000006000000fa00f1
:10124000707c8000ee800a00000000000080fb003f
:1012500000f0a7000000ea000000ea004f00de00f6
:10126000004078000080fa00000006000200fa004a
:10127000940007002630ef000040eb00004f78009c
:10128000308180000000e0000e003a00e0ff2f00f7
:1012900020818800f0248400000001000004a200e6
:1012a0000004e00004003200c22484001100200089
:1012b000400221000200010010002000308188005f
:1012c0000e00370030818000e10f50000b003a0023
:1012d0002430ef00f0248400000001000004a2008c
:1012e0000004e00004003200c22484001100200049
:1012f00040022100020001002630ef003070800023
:101300006100600000f0a7000000ea000000e900b2
:101310004f00de00004078000080fb0061006000ac
:10132000317080000100a100010070003070880061
:1013300011718000008020000080600000f0a70094
:101340000000ea000000e9004f00de0000407800e5
:101350000080fb00610060004b00dd001171800027
:1013600001b0a100010070001071880000a82100e8
:10137000610020005b000700c1ff37000000fa0099
:1013800001448000f08f2f00008060000080a000ea
:101390000044880001448000f0ff280000806000c5
:1013a00000c0a000004488000080fa000000060091
:1013b0000000fa0001448000f08f2f0000806000e0
:1013c00000a0a0000044880001448000f0ff280035
:1013d0000080600000e0a000004488000080fa0067
:1013e000000006000000fa00062eef00222eef009b
:1013f000e001200010708800f07f2f00f07088005e
:101400000a2eef00262eef000c2eef00282eef0004
:10141000082eef00242eef00e0012000007088006d
:10142000f0092000e07088000080fa00000006004b
:020000040000fa
:101430002c1000000200000082000000ffff0000ee
:1014400000100000200000008000000020100000bc
:1014500004000000800000002410000004000000d0
:101460008000000028100000040000008000000040
:041470000000000078
:020000040000fa
:101474000200fa00000f78009e0078006181880065
:101484000000fe000080fa00000006000000fa00e0
:1014940000002100800778008001210000018800fd
:1014a4000080fa00000006000000fa00c3e8a8006b
:1014b40000000000000000000080fa0000000600a8
:1014c4000000fa000dff0700c5ff070095fd0700a7
:1014d400f5ff0700a8ff07000080fa0000000600df
:020000040000fa
:1014e400f03fb1000180b10006003500ee030900b1
:1014f40000000000403fb1000180b100fbff3d004f
:101504001000b000203fb000020035000080090048
:081514000000000000000600c9
:020000040000fa
:10151c00809fbe00ec80570031007800008188006d
:10152c001100780022f0b7004f00be00000006004a
:00000001FF
