:020000040000fa
:080000000002040000000000f2
:020000040000fa
:0400080046060000a8
:020000040000fa
:04000c00ac0500003f
:020000040000fa
:04001000cc0500001b
:020000040000fa
:04001400860600005c
:020000040000fa
:040018006606000078
:020000040000fa
:04001c00a806000032
:020000040000fa
:04002000ec050000eb
:020000040000fa
:04002400a80600002a
:020000040000fa
:04002800a806000026
:020000040000fa
:04002c00a806000022
:020000040000fa
:04003000a80600001e
:020000040000fa
:04003400a80600001a
:020000040000fa
:04003800a806000016
:020000040000fa
:04003c00a806000012
:020000040000fa
:04004000a80600000e
:020000040000fa
:04004400a80600000a
:020000040000fa
:04004800a806000006
:020000040000fa
:04004c00a806000002
:020000040000fa
:04005000a8060000fe
:020000040000fa
:04005400a8060000fa
:020000040000fa
:04005800a8060000f6
:020000040000fa
:04005c00a8060000f2
:020000040000fa
:04006000a8060000ee
:020000040000fa
:04006400a8060000ea
:020000040000fa
:04006800a8060000e6
:020000040000fa
:04006c00a8060000e2
:020000040000fa
:04007000a8060000de
:020000040000fa
:04007400a8060000da
:020000040000fa
:04007800a8060000d6
:020000040000fa
:04007c00a8060000d2
:020000040000fa
:04008000a8060000ce
:020000040000fa
:04008400a8060000ca
:020000040000fa
:04008800a8060000c6
:020000040000fa
:04008c00a8060000c2
:020000040000fa
:04009000a8060000be
:020000040000fa
:04009400a8060000ba
:020000040000fa
:04009800a8060000b6
:020000040000fa
:04009c00a8060000b2
:020000040000fa
:0400a000a8060000ae
:020000040000fa
:0400a400a8060000aa
:020000040000fa
:0400a800a8060000a6
:020000040000fa
:0400ac00a8060000a2
:020000040000fa
:0400b000a80600009e
:020000040000fa
:0400b400a80600009a
:020000040000fa
:0400b800a806000096
:020000040000fa
:0400bc00a806000092
:020000040000fa
:0400c000a80600008e
:020000040000fa
:0400c400a80600008a
:020000040000fa
:0400c800a806000086
:020000040000fa
:0400cc00a806000082
:020000040000fa
:0400d000a80600007e
:020000040000fa
:0400d400a80600007a
:020000040000fa
:0400d800a806000076
:020000040000fa
:0400dc008604000096
:020000040000fa
:0400e000a80600006e
:020000040000fa
:0400e400a80600006a
:020000040000fa
:0400e800a806000066
:020000040000fa
:0400ec00a806000062
:020000040000fa
:0400f000a80600005e
:020000040000fa
:0400f400a80600005a
:020000040000fa
:0400f800a806000056
:020000040000fa
:0400fc00a806000052
:020000040000fa
:04010000a80600004d
:020000040000fa
:04010400a806000049
:020000040000fa
:04010800a806000045
:020000040000fa
:04010c00a806000041
:020000040000fa
:04011000a80600003d
:020000040000fa
:04011400a806000039
:020000040000fa
:04011800a806000035
:020000040000fa
:04011c00a806000031
:020000040000fa
:04012000a80600002d
:020000040000fa
:04012400a806000029
:020000040000fa
:04012800a806000025
:020000040000fa
:04012c00a806000021
:020000040000fa
:04013000a80600001d
:020000040000fa
:04013400a806000019
:020000040000fa
:04013800a806000015
:020000040000fa
:04013c00a806000011
:020000040000fa
:04014000a80600000d
:020000040000fa
:04014400a806000009
:020000040000fa
:04014800a806000005
:020000040000fa
:04014c00a806000001
:020000040000fa
:04015000a8060000fd
:020000040000fa
:04015400a8060000f9
:020000040000fa
:04015800a8060000f5
:020000040000fa
:04015c00a8060000f1
:020000040000fa
:04016000a8060000ed
:020000040000fa
:04016400a8060000e9
:020000040000fa
:04016800a8060000e5
:020000040000fa
:04016c00a8060000e1
:020000040000fa
:04017000a8060000dd
:020000040000fa
:04017400a8060000d9
:020000040000fa
:04017800a8060000d5
:020000040000fa
:04017c00a8060000d1
:020000040000fa
:04018000a8060000cd
:020000040000fa
:04018400a8060000c9
:020000040000fa
:04018800a8060000c5
:020000040000fa
:04018c00a8060000c1
:020000040000fa
:04019000a8060000bd
:020000040000fa
:04019400a8060000b9
:020000040000fa
:04019800a8060000b5
:020000040000fa
:04019c00a8060000b1
:020000040000fa
:0401a000a8060000ad
:020000040000fa
:0401a400a8060000a9
:020000040000fa
:0401a800a8060000a5
:020000040000fa
:0401ac00a8060000a1
:020000040000fa
:0401b000a80600009d
:020000040000fa
:0401b400a806000099
:020000040000fa
:0401b800a806000095
:020000040000fa
:0401bc00a806000091
:020000040000fa
:0401c000a80600008d
:020000040000fa
:0401c400a806000089
:020000040000fa
:0401c800a806000085
:020000040000fa
:0401cc00a806000081
:020000040000fa
:0401d000a80600007d
:020000040000fa
:0401d400a806000079
:020000040000fa
:0401d800a806000075
:020000040000fa
:0401dc00a806000071
:020000040000fa
:0401e000a80600006d
:020000040000fa
:0401e400a806000069
:020000040000fa
:0401e800a806000065
:020000040000fa
:0401ec00a806000061
:020000040000fa
:0401f000a80600005d
:020000040000fa
:0401f400a806000059
:020000040000fa
:0401f800a806000055
:020000040000fa
:0401fc00a806000051
:020000040000fa
:04020000a80600004c
:020000040000fa
:04020400a806000048
:020000040000fa
:04020800a806000044
:020000040000fa
:04020c00a806000040
:020000040000fa
:04021000a80600003c
:020000040000fa
:04021400a806000038
:020000040000fa
:04021800a806000034
:020000040000fa
:04021c00a806000030
:020000040000fa
:04022000a80600002c
:020000040000fa
:04022400a806000028
:020000040000fa
:04022800a806000024
:020000040000fa
:04022c004c0500007d
:020000040000fa
:04023000ac0400001a
:020000040000fa
:04023400cc040000f6
:020000040000fa
:04023800a806000014
:020000040000fa
:04023c00a806000010
:020000040000fa
:04024000a80600000c
:020000040000fa
:04024400a806000008
:020000040000fa
:04024800a806000004
:020000040000fa
:04024c00a806000000
:020000040000fa
:04025000ec040000ba
:020000040000fa
:040254000c05000095
:020000040000fa
:040258002c05000071
:020000040000fa
:04025c008c0500000d
:020000040000fa
:04026000a8060000ec
:020000040000fa
:04026400a8060000e8
:020000040000fa
:04026800a8060000e4
:020000040000fa
:04026c00a8060000e0
:020000040000fa
:040270006c05000019
:020000040000fa
:04027400a8060000d8
:020000040000fa
:04027800a8060000d4
:020000040000fa
:04027c00a8060000d0
:020000040000fa
:04028000a8060000cc
:020000040000fa
:04028400a8060000c8
:020000040000fa
:04028800a8060000c4
:020000040000fa
:04028c00a8060000c0
:020000040000fa
:04029000a8060000bc
:020000040000fa
:04029400a8060000b8
:020000040000fa
:04029800a8060000b4
:020000040000fa
:04029c00a8060000b0
:020000040000fa
:0402a000a8060000ac
:020000040000fa
:0402a400a8060000a8
:020000040000fa
:0402a800a8060000a4
:020000040000fa
:0402ac00a8060000a0
:020000040000fa
:0402b000a80600009c
:020000040000fa
:0402b400a806000098
:020000040000fa
:0402b800a806000094
:020000040000fa
:0402bc00a806000090
:020000040000fa
:0402c000a80600008c
:020000040000fa
:0402c400a806000088
:020000040000fa
:0402c800a806000084
:020000040000fa
:0402cc00a806000080
:020000040000fa
:0402d000a80600007c
:020000040000fa
:0402d400a806000078
:020000040000fa
:0402d800a806000074
:020000040000fa
:0402dc00a806000070
:020000040000fa
:0402e000a80600006c
:020000040000fa
:0402e400a806000068
:020000040000fa
:0402e800a806000064
:020000040000fa
:0402ec00a806000060
:020000040000fa
:0402f000a80600005c
:020000040000fa
:0402f400a806000058
:020000040000fa
:0402f800a806000054
:020000040000fa
:0402fc00a806000050
:020000040000fa
:04030000a80600004b
:020000040000fa
:04030400a806000047
:020000040000fa
:04030800a806000043
:020000040000fa
:04030c00a80600003f
:020000040000fa
:04031000a80600003b
:020000040000fa
:04031400a806000037
:020000040000fa
:04031800a806000033
:020000040000fa
:04031c00a80600002f
:020000040000fa
:04032000a80600002b
:020000040000fa
:100400000f0421000eff24000e01880000002000d0
:100410000000e000020032000001200020028800fd
:10042000140007004c0207000000e00003003a003f
:1004300020f421000100200002003700000020000d
:1004400001002000810f70004220ae000f00070065
:10045000000020000000e0004220ae00000002008a
:1004600000000000aa190200000000000040da00ad
:100470000000fe00402020000000e00002003200ea
:10048000002020009001880000000600a1028800e2
:10049000800478000000eb001f003700e284440075
:1004a00054a0b4009905ba00e284440054a0b400fa
:1004b0009906ba00e284440054a0b4000006eb00a0
:1004c000476fde00fd07b200ae018800636ce100fb
:1004d00003003a000ad801000000eb000e003700cc
:1004e000606ce10008003a00004deb000a05e800ee
:1004f000020039003420ec000af0a0008b05e9006e
:10050000f9ff3e00040037006168e100010032009d
:100510000086eb000b00070019c7ba001905ba00e6
:100520000e04e00003003a000a00e000dbff3a009e
:1005300000000600fe07b200ae0288008a047800c0
:10054000f5ff37000cd0a300e20f4d001c003b006c
:1005500089027800354dba000a05e800020039002a
:100560003420ec000af0a0008b05e9000f003200f7
:10057000254dba000a05e800020039003420ec00dd
:100580000af0a0008b05e900080032000c00e00032
:100590000600320015cdba000a05e8000200390055
:1005a0003420ec000af0a0008b05e9008984e80003
:1005b00054a0b4000b00e000e2ff3a000000060087
:1005c0009902ba00055d78008b05e900f7ff32005b
:1005d000c82ade00055d78008b05e900f3ff3200d4
:1005e0000c00e000f1ff320019ddba00eeff370029
:1005f0006100e10001003200100005005400f80025
:1006000000102000a002880000f92a001000ba00a3
:100610005400f9000700220000f0a6008703d10073
:100620000703780001c4fe000003eb000120200056
:1006300091018800218d2800111303008703e90030
:10064000fdff3a0000f0a7000000050000f0a00048
:1006500080c4fe0086037800f3ff37000408200002
:10066000010037000002eb006100e10001003200f0
:10067000100005003200f8003400f8008102780014
:10068000930188003200be000100e0000c0032003f
:100690000470a70000f0a00032037800c733de002a
:1006a000848343004220af008703e800a70188004d
:1006b000f607b2007f30e100040032002000200085
:1006c0003400f9003200f900000006008100e90062
:1006d0000500e00003003a00018009003210030029
:1006e000e8ff37000180090032900300d561ae00b9
:1006f000e4ff370030002000f1ff370050052000f4
:10070000b00e8800a00a2000b00e8800d3e1a80037
:100710000000060050052000b00e8800a00a20004e
:10072000b00e8800d3e1a900000006000000000020
:1007300000000000000000000000000000000000b9
:1007400000000000000000000000000000000000a9
:100750000000000000000000000000000000000099
:100760000000000000000000000000000000000089
:100770000000000000000000000000000000000079
:100780000000000000000000000000000000000069
:100790000000000000000000000000000000000059
:1007a0000000000000000000000000000000000049
:1007b0000000000000000000000000000000000039
:1007c0000000000000000000000000000000000029
:1007d0000000000000000000000000000000000019
:1007e0000000000000000000000000000000000009
:1007f00000000000000000000000000000000000f9
:1008000000000000000000000000000000000000e8
:1008100000000000000000000000000000000000d8
:1008200000000000000000000000000000000000c8
:1008300000000000000000000000000000000000b8
:1008400000000000000000000000000000000000a8
:100850000000000000000000000000000000000098
:100860000000000000000000000000000000000088
:100870000000000000000000000000000000000078
:100880000000000000000000000000000000000068
:100890000000000000000000000000000000000058
:1008a0000000000000000000000000000000000048
:1008b0000000000000000000000000000000000038
:1008c0000000000000000000000000000000000028
:1008d0000000000000000000000000000000000018
:1008e0000000000000000000000000000000000008
:1008f00000000000000000000000000000000000f8
:100900000000000000000000000000003600f800b9
:10091000809fbe00829fbe00849fbe00869fbe0057
:100920000000fa00b08080000000e0000200320009
:10093000b08080000000010005a8a9000080fa0036
:100940004f03be004f02be004f01be004f00be006d
:100950003600f900004006003600f800809fbe0017
:10096000829fbe00849fbe00869fbe000000fa00ea
:1009700000808000000001001048a9000080fa00fb
:100980004f03be004f02be004f01be004f00be002d
:100990003600f900004006003600f800809fbe00d7
:1009a000829fbe00849fbe00869fbe000000fa00aa
:1009b00010808000000001001068a9000080fa008b
:1009c0004f03be004f02be004f01be004f00be00ed
:1009d0003600f900004006003600f800809fbe0097
:1009e000829fbe00849fbe00869fbe000000fa006a
:1009f00020808000000001001148a9000080fa005a
:100a00004f03be004f02be004f01be004f00be00ac
:100a10003600f900004006003600f800809fbe0056
:100a2000829fbe00849fbe00869fbe000000fa0029
:100a300030808000000001001168a9000080fa00e9
:100a40004f03be004f02be004f01be004f00be006c
:100a50003600f900004006003600f800809fbe0016
:100a6000829fbe00849fbe00869fbe000000fa00e9
:100a700040808000000001001188a9000080fa0079
:100a80004f03be004f02be004f01be004f00be002c
:100a90003600f900004006003600f800809fbe00d6
:100aa000829fbe00849fbe00869fbe000000fa00a9
:100ab00050808000000001001028a9000080fa008a
:100ac0004f03be004f02be004f01be004f00be00ec
:100ad0003600f900004006003600f800809fbe0096
:100ae000829fbe00849fbe00869fbe000000fa0069
:100af00060808000000001001248a9000080fa0018
:100b00004f03be004f02be004f01be004f00be00ab
:100b10003600f900004006003600f800809fbe0055
:100b2000829fbe00849fbe00869fbe000000fa0028
:100b3000708080000000010011a8a9000080fa0068
:100b40004f03be004f02be004f01be004f00be006b
:100b50003600f900004006003600f800809fbe0015
:100b6000829fbe00849fbe00869fbe000000fa00e8
:100b7000c068a90020002000e60c07000080fa00f1
:100b80004f03be004f02be004f01be004f00be002b
:100b90003600f900004006003600f800809fbe00d5
:100ba000829fbe00849fbe00869fbe000000fa00a8
:100bb000c608a90070002000d60c07000080fa00cb
:100bc0004f03be004f02be004f01be004f00be00eb
:100bd0003600f900004006003600f800809fbe0095
:100be000829fbe00849fbe00869fbe000000fa0068
:100bf00020468000700060000000e000030032002a
:100c0000c488a900a0002000c20c07002146800073
:100c100000022000008060000000e00003003200bd
:100c2000c4a8a90090002000ba0c0700214680004b
:100c300000102000008060000000e000030032008f
:100c4000c508a900c0002000b20c070021468000a2
:100c500000202000008060000000e000030032005f
:100c6000c528a900d0002000aa0c0700204680005b
:100c7000610060000000e00003003200c408a90029
:100c8000b0002000a30c0700ffff37003600f8007b
:100c9000809fbe00829fbe00849fbe00869fbe00d4
:100ca0000000fa00c028a9000000eb00990c070022
:100cb0000080fa004f03be004f02be004f01be008d
:100cc0004f00be003600f900004006003600f80074
:100cd000809fbe00829fbe00849fbe00869fbe0094
:100ce0000000fa00c088a90030002000890c07002d
:100cf0000080fa004f03be004f02be004f01be004d
:100d00004f00be003600f900004006003600f80033
:100d1000809fbe00829fbe00849fbe00869fbe0053
:100d20000000fa00820c0700c048a9001000200053
:100d3000780c07000080fa004f03be004f02be008f
:100d40004f01be004f00be003600f9000040060013
:100d50000040da000000fe00000005006022b8003c
:100d6000060220000000d0008180d2000482d20060
:100d70008582d2000000a0000202520083825a0045
:100d8000030031000202420083824a000000a100f9
:0c0d90000603e900f3ff3a000000060033
:020000040000fa
:100d9c00486500006c6c00006f200000504500009e
:100dac0050490000544f0000200d00000a000000c4
:100dbc004d530000493100005354000041540000d1
:100dcc00203d00002030000078000000205300007f
:100ddc004c56000052530000543d0000002000000f
:100dec00534c000056500000575200003d000000cc
:100dfc00436f000072650000312000005374000046
:100e0c0061740000757300003a2000005255000018
:100e1c004e4e0000494e0000470d00000a00000035
:100e2c00436f000072650000312000005374000015
:100e3c0061740000757300003a200000494e0000f8
:100e4c002052000045530000455400000d0a0000dc
:100e5c00004300006f720000653100002053000059
:100e6c007461000074750000733a0000204e00009d
:100e7c004f5200004d4100004c2000004d4f00002f
:100e8c00444500000d0a0000004300006f72000092
:100e9c00653100002053000074610000747500007f
:100eac00733a000020490000444c0000452000002b
:100ebc004d4f0000444500000d0a000000430000a7
:100ecc006f72000065310000205300007461000057
:100edc0074750000733a0000205300004c4500006c
:100eec0045500000204d00004f440000450d00000f
:100efc000a000000436f0000726500003120000002
:100f0c005374000061740000757300003a200000f7
:100f1c00554e00004b4e00004f5700004e0d000088
:100f2c000a000000436f00007265000031200000d1
:100f3c004d53000049200000537400006174000000
:100f4c00757300003a200000525500004e4e000010
:100f5c00494e0000470d00000a000000436f0000de
:100f6c0072650000312000004d5300004920000044
:100f7c005374000061740000757300003a20000087
:100f8c00494e00002052000045530000455400001b
:100f9c000d0a0000004300006f7200006531000074
:100fac00204d0000534900002053000074610000e4
:100fbc0074750000733a0000204e00004f52000080
:100fcc004d4100004c2000004d4f000044450000f6
:100fdc000d0a0000004300006f7200006531000034
:100fec00204d0000534900002053000074610000a4
:100ffc0074750000733a000020490000444c000056
:10100c00452000004d4f0000444500000d0a000033
:10101c00004300006f72000065310000204d00009d
:10102c0053490000205300007461000074750000e7
:10103c00733a0000205300004c450000455000005e
:10104c00204d00004f440000450d00000a00000038
:10105c00436f000072650000312000004d5300000a
:10106c004920000053740000617400007573000087
:10107c003a200000554e00004b4e00004f57000028
:10108c004e0d00000a000000303100003233000029
:10109c00343500003637000038390000414200007a
:1010ac0043440000454600000000000024140000ea
:1010bc0074140000a61400009e140000b814000064
:1010cc00c0140000d8140000e0140000f814000054
:1010dc000015000008150000241500003a1500004a
:1010ec0028130000301300003813000040130000d8
:1010fc0082150000ba1500004813000060130000b0
:10110c00781300009013000024160000f215000064
:10111c00a8130000ea1300005616000096160000f3
:10112c00ae160000c6160000de160000f616000013
:10113c000e17000026170000461700005c17000071
:10114c007a17000090170000a4170000c4170000c5
:10115c00e6170000ee170000000000000000000081
:10116c00f61700001c18000034180000a618000028
:10117c00bc180000d81800003a1900004c180000e8
:10118c000000000000000000000000000000000053
:08119c0000000000000000004b
:020000040000fa
:0411a400ffffff004a
:020000040000fa
:1011a80000000000ca0000001f0000000002040048
:1011b80000000000dc03000052030000720300007e
:1011c8001c040000fc0300007e04000092030000e1
:1011d8007e0400007e0400007e0400007e040000ff
:1011e8007e0400007e0400007e0400007e040000ef
:1011f8007e0400007e0400007e0400007e040000df
:101208007e0400007e0400007e0400007e040000ce
:101218007e0400007e0400007e0400007e040000be
:101228007e0400007e0400007e0400007e040000ae
:101238007e0400007e0400007e0400007e0400009e
:101248007e0400007e0400007e0400007e0400008e
:101258007e0400007e0400007e0400007e0400007e
:101268007e0400007e0400007e0400007e0400006e
:101278007e0400007e0400007e0400007e0400005e
:101288007e0400007e0400007e0400007e0400004e
:101298007e0400007e0400007e0400007e0400003e
:1012a8007e0400007e0400007e0400007e0400002e
:1012b8007e0400007e0400007e0400007e0400001e
:1012c8007e0400007e0400007e0400007e0400000e
:1012d8007e0400007e0400007e0400007e040000fe
:1012e8007e0400007e0400007e0400007e040000ee
:1012f8007e0400007e0400007e0400007e040000de
:101308007e0400007e0400007e0400007e040000cd
:101318007e0400007e0400007e0400007e040000bd
:101328007e0400007e0400007e0400007e040000ad
:101338007e0400007e0400007e0400007e0400009d
:101348007e0400007e0400007e0400007e0400008d
:101358007e0400007e0400007e0400007e0400007d
:101368007e0400007e0400007e0400007e0400006d
:101378007e0400007e0400007e0400007e0400005d
:101388007e0400007e0400007e0400007e0400004d
:101398007e0400007e0400007e0400007e0400003d
:1013a8007e0400007e0400007e0400007e0400002d
:1013b8007e0400007e0400007e0400007e0400001d
:1013c8007e0400007e0400007e0400007e0400000d
:1013d8007e0400007e0400007e0400003e0400003d
:1013e8005e0400007e0400007e0400007e0400000d
:1013f8007e0400007e0400007e0400007e040000dd
:101408007e0400007e0400007e0400007e040000cc
:101418007e0400007e0400007e0400007e040000bc
:101428007e0400007e0400007e0400007e040000ac
:101438007e0400007e0400007e0400007e0400009c
:101448007e0400007e0400007e0400007e0400008c
:101458007e0400007e0400007e0400007e0400007c
:101468007e0400007e0400007e0400007e0400006c
:101478007e0400007e0400007e0400007e0400005c
:101488007e0400007e0400007e0400007e0400004c
:101498007e0400007e0400007e0400007e0400003c
:1014a8007e0400007e0400007e0400007e0400002c
:1014b8007e0400007e0400007e0400007e0400001c
:1014c8007e0400007e0400007e0400000000fe0090
:1014d8000000fe0000020000000200001f000000e3
:1014e800ef0221000eff21000e018800000000001d
:1014f800000020000000e00002003200000120008f
:101508002002880014000700360107000000e000f0
:1015180003003a0080a120000100200002003700eb
:101528000000200001002000810f7000010032003f
:101538000f000700000020000000e0000200320059
:101548000000020000000000360902000000000050
:101558000040da000000fe00400320000000e00028
:1015680002003200002020009001880000000600e0
:10157800a1028800800478000000eb001f003700fb
:10158800e284440054a0b4009905ba00e2844400ff
:1015980054a0b4009906ba00e284440054a0b400f0
:1015a8000006eb00476fde00fd07b200ae018800c1
:1015b800636ce10003003a000ad801000000eb0068
:1015c8000e003700606ce10008003a00004deb00a7
:1015d8000a05e800020039003420ec000af0a000f7
:1015e8008b05e900f9ff3e00040037006168e1005f
:1015f800010032000086eb000b00070019c7ba0093
:101608001905ba000e04e00003003a000a00e000e1
:10161800dbff3a0000000600fe07b200ae028800b9
:101628008a047800f5ff37000cd0a300e20f4d00c4
:101638001c003b0089027800354dba000a05e80015
:10164800020039003420ec000af0a0008b05e90004
:101658000f003200254dba000a05e80002003900e3
:101668003420ec000af0a0008b05e90008003200e5
:101678000c00e0000600320015cdba000a05e800ab
:10168800020039003420ec000af0a0008b05e900c4
:101698008984e80054a0b4000b00e000e2ff3a009f
:1016a800000006009902ba00055d78008b05e90084
:1016b800f7ff3200c82ade00055d78008b05e900d7
:1016c800f3ff32000c00e000f1ff320019ddba0030
:1016d800eeff3700000000000000000000000000de
:1016e80000000000000000000000000000000000f2
:1016f80000000000000000000000000000000000e2
:1017080000000000000000000000000000000000d1
:1017180000000000000000000000000000000000c1
:1017280000000000000000000000000000000000b1
:1017380000000000000000000000000000000000a1
:101748000000000000000000000000000000000091
:101758000000000000000000000000000000000081
:101768000000000000000000000000000000000071
:101778000000000000000000000000000000000061
:10178800000000003600f800809fbe00829fbe0067
:10179800849fbe00869fbe000000fa00c068a900b2
:1017a800200020006b0307000080fa004f03be00f2
:1017b8004f02be004f01be004f00be003600f900c8
:1017c800004006003600f800809fbe00829fbe00e1
:1017d800849fbe00869fbe000000fa00c608a900cc
:1017e800700020005b0307000080fa004f03be0072
:1017f8004f02be004f01be004f00be003600f90088
:10180800004006003600f800809fbe00829fbe00a0
:10181800849fbe00869fbe000000fa00204680001c
:10182800700060000000e00003003200c488a900d6
:10183800a000200047030700214680000002200086
:10184800008060000000e00003003200c4a8a90086
:10185800900020003f030700214680000010200070
:10186800008060000000e00003003200c508a90005
:10187800c000200037030700204680006100600098
:101888000000e00003003200c408a900b0002000f6
:1018980030030700ffff37003600f800809fbe00c6
:1018a800829fbe00849fbe00869fbe000000fa0093
:1018b800c028a9000000eb00260307000080fa00fa
:1018c8004f03be004f02be004f01be004f00be00d6
:1018d8003600f900004006003600f800809fbe0080
:1018e800829fbe00849fbe00869fbe000000fa0053
:1018f800c088a90030002000160307000080fa0005
:101908004f03be004f02be004f01be004f00be0095
:101918003600f900004006003600f800809fbe003f
:10192800829fbe00849fbe00869fbe000000fa0012
:101938000f030700c048a900100020000503070096
:101948000080fa004f03be004f02be004f01be00e8
:101958004f00be003600f900004006003600f800cf
:10196800809fbe00829fbe00849fbe00869fbe00ef
:101978000000fa0040818000000001001048a90022
:101988000080fa004f03be004f02be004f01be00a8
:101998004f00be003600f900004006003600f8008f
:1019a800809fbe00829fbe00849fbe00869fbe00af
:1019b8000000fa0050818000000001001068a900b2
:1019c8000080fa004f03be004f02be004f01be0068
:1019d8004f00be003600f900004006000040da0063
:1019e8000000fe000000050094050000b00500009e
:1019f800c0050000c8050000e0050000e80500007b
:101a08000006000008060000100600005806000046
:101a180090060000b8040000d0040000e8040000ac
:101a280000050000fa060000c806000018050000be
:101a38005a0500002c07000000000000000000000c
:101a4800000000000000000000000000000000008e
:101a58000000fa00d00f800099800a000000000002
:101a68000080fb0000f0a7000000ea000000ea0088
:101a78004f00de00004078000080fa0000000600f9
:101a88000000fa00d00f800088800a0000000000e3
:101a98000080fb0000f0a7000000ea000000ea0058
:101aa8004f00de00004078000080fa0000000600c9
:101ab8000000fa00d00f800011800a00000000002a
:101ac8000080fb0000f0a7000000ea000000ea0028
:101ad8004f00de00004078000080fa000000060099
:101ae8000000fa00d00f800000800a00000000000b
:101af8000080fb0000f0a7000000ea000000ea00f8
:101b08004f00de00004078000080fa000000060068
:101b18000400fa00100798000040eb00004f78001e
:101b28001e0090000000e00003003200e10f5000aa
:101b38000b00320014003700c00e800000800a003d
:101b4800000000000080fb0000f0a7000000ea0091
:101b58000000ea004f00de00004f78000a0037005e
:101b6800c00e800011800a00000000000080fb0009
:101b780000f0a7000000ea000000ea004f00de00c5
:101b8800004f7800000000001e4078000080fa0036
:101b9800000006000400fa00100798000040eb005f
:101ba800004f78001e0090000000e00003003200a3
:101bb800e10f50000900320010003700c00e80000d
:101bc8006100600000f0a7000000ea000000e900e2
:101bd8004f00de00004f780008003700c00e80007c
:101be8006200600000f0a7000000ea000000e900c1
:101bf8004f00de00004f7800000000001e40780013
:101c08000080fa00000006000000fa00d221ef0070
:101c1800017620000000eb00c70007006176200075
:101c280010002000c40007001048a9003048a80090
:101c38001068a9003068a8000080fa0000000600bb
:101c48000000fa00d221ef003048a9001048a9008e
:101c58003068a9001068a9000080fa00000006009a
:101c68000000fa00d321a8000080fa000000060056
:101c78000000fa00a00e800088800a000000000022
:101c88000080fb0000f0a7000000ea000000ea0066
:101c98004f00de00004078000080fa0000000600d7
:101ca8000000fa00d321a9000080fa000000060015
:101cb8000000fa00a00e800099800a0000000000d1
:101cc8000080fb0000f0a7000000ea000000ea0026
:101cd8004f00de00004078000080fa000000060097
:101ce80000060000000200001f0000000000fa00cb
:101cf800d301a8000080fa00000006000000fa00e6
:101d0800d301a9000080fa00000006000200fa00d2
:101d180030002000000f7800a10e8000000028008d
:101d2800008060000000e000030032004000200056
:101d3800000f780016003700a00e8000dc800a0033
:101d4800000000000080fb00e10f50000700320097
:101d5800e20f5000080032000000e00009003a00dd
:101d68000000eb00000f7800090037002000200079
:101d7800000f78000600370010002000000f7800e0
:101d88000300370030002000000f7800000000003a
:101d98001e0078000080fa00000006000600fa0025
:101da80010079800210798000000eb00000f78004a
:101db8000e00370035ff07000004a2000004e00011
:101dc8000e003200f10f80001e009000010878001c
:101dd8001e0090000080e800100798002e00900078
:101de8000000e900200798001e0fe8002e00900070
:101df8000000e000efff3a0001003700000000009b
:101e08001e0078000080fa00000006000600fa00b4
:101e180010079800210798000000eb00000f7800d9
:101e28000e00370025ff07000004a2000004e000b0
:101e38000e0032001e00900010007800e00f8800ad
:101e48001e0090000080e800100798002e00900007
:101e58000000e900200798001e0fe8002e009000ff
:101e68000000e000efff3a0001003700000000002a
:101e78001e0078000080fa00000006000600fa0044
:101e880010079800210798000040eb00004f7800e9
:101e98001e009000e10f50000d003a0010002000d5
:101ea8003fff07000004e000060032002e0090000b
:101eb80010007800e00e880010c0b300004f7800d2
:101ec800040037000040eb00004f780001003700a5
:101ed800000000001e4078000080fa0000000600a4
:101ee8000600fa0010079800210798000040eb0050
:101ef800004f78001e0090000000e0000d003a003e
:101f08000000eb0005ff07000004e00006003200b7
:101f1800d10e80002e0090000108780010c0b30098
:101f2800004f7800040037000040eb00004f7800b5
:101f380001003700000000001e4078000080fa0011
:101f4800000006000400fa00000f7800110798004e
:101f58001e0078000000e00003003200e10f50008e
:101f6800070032000f0037001e0090000000e0005c
:101f7800090032009e009000418188000900370066
:101f88001e0090000000e000050032009e00900056
:101f9800518188000300370000000000010037006d
:101fa800000000000080fa00000006000000fa00af
:101fb8000080fa00000006000000fa000080fa0025
:101fc800000006000400fa00100798000040eb002b
:101fd800004f78001e0090000000e00002003d0065
:101fe80010c0b300004f78001e4078000080fa004f
:101ff800000006000400fa00100798000040eb00fb
:10200800004f78009e0090000000240000806000cf
:102018000000e0000200320010c0b300004f78005a
:102028001e4078000080fa00000006000400fa0054
:10203800100798000040eb00004f78009e009000c9
:1020480000202000008060000000e0000200320054
:1020580010c0b300004f78001e4078000080fa00de
:10206800000006000400fa00100798000040eb008a
:10207800004f78009e00900000082000008060005b
:102088000000e0000200320010c0b300004f7800ea
:102098001e4078000080fa00000006000400fa00e4
:1020a800100798000040eb00004f78009e00900059
:1020b80000042000008060000000e0000200320000
:1020c80010c0b300004f78001e4078000080fa006e
:1020d800000006000400fa00100798000040eb001a
:1020e800004f78001e009000700060000000e000c3
:1020f8000200320010c0b300004f78001e40780084
:102108000080fa00000006000200fa00000f7800c4
:102118009e80ea00007c800000806000007c8800cf
:102128000080fa00000006000000fa00007c800031
:102138000080fa00000006000200fa00faff07001b
:10214800000f78001e0078009eff07000004e000e2
:102158000200320000002800ebff07001e00780094
:10216800a4ff07000004e000020032000000240081
:10217800e5ff07001e007800acff07000004e00040
:102188000200320000202000dfff07001e00780058
:10219800b4ff07000004e00002003200000820003d
:1021a800d9ff07001e007800bcff07000004e0000c
:1021b8000200320000042000d3ff07001e00780050
:1021c800c4ff07000004e000020032000001200004
:1021d800cdff07000080fa00000006000000fa00aa
:1021e800802fef000080fa00000006000000fa00cf
:1021f800217c800000002700808060000000210012
:10220800808f500006003200217c800000002700eb
:102218008080600000002300808f50001c003a007e
:1022280085cfbf008080fb0080ff2f000081600009
:1022380080072000a109200053f820008049780079
:10224800814978008249780012002000600420004b
:102258007105200043f82000804978008149780002
:102268008249780000000000207c80006100600046
:102278000000e000fcff3a0000000000217c800024
:1022880000022000008060000000e000fbff320038
:1022980010002300307c880060092000407c880002
:1022a80010042000507c880010102000707c8800ea
:1022b80060092000807c880010042000907c880041
:1022c800b82fef00ba2fef00be2fef00002def0060
:1022d800a42fef00a62fef00aa2fef00ae2fef00dc
:1022e800b02fef00b22fef0072002000800720000f
:1022f800a109200053f8200080497800814978001e
:10230800824978000001eb0060042000710520007c
:1023180043f8200080497800814978008249780094
:102328000080fa00000006000000fa00707c8000bf
:10233800ee800a00000000000080fb0000f0a7000b
:102348000000ea000000ea004f00de0000407800cc
:102358000080fa00000006000200fa00940007005e
:102368002630ef000040eb00004f780030818000fd
:102378000000e0000e003a00e0ff2f0020818800f6
:10238800f0248400000001000004a2000004e00022
:1023980004003200c2248400110020004002210001
:1023a8000200010010002000308188000e00370074
:1023b80030818000e10f50000b003a002430ef001c
:1023c800f0248400000001000004a2000004e000e2
:1023d80004003200c22484001100200040022100c1
:1023e800020001002630ef003070800061006000bc
:1023f80000f0a7000000ea000000e9004f00de003e
:10240800004078000080fb006100600031708000af
:102418000100a10001007000307088001171800077
:10242800008020000080600000f0a7000000ea00a3
:102438000000e9004f00de00004078000080fb004b
:10244800610060004b00dd001171800001b0a10047
:10245800010070001071880000902000d103200056
:102468005b000700c1ff37000000fa00014480004c
:10247800f08f2f00008060000080a00000448800da
:1024880001448000f0ff28000080600000c0a00028
:10249800004488000080fa00000006000000fa00ee
:1024a80001448000f08f2f000080600000a0a00091
:1024b8000044880001448000f0ff2800008060008c
:1024c80000e0a000004488000080fa000000060038
:1024d8000000fa00062eef00222eef00e001200097
:1024e80010708800f07f2f00f0708800000a00004c
:1024f800500000001f0000000a2eef00262eef00fb
:102508000c2eef00282eef00082eef00242eef00ef
:10251800e001200000708800f0092000e0708800c9
:102528000080fa00000006002c10000002000000e5
:1025380082000000ffff00000010000020000000e3
:10254800800000002010000004000000800000004f
:102558002410000004000000800000002810000083
:102568000400000080000000000000000200fa00e3
:10257800000f78009e007800618188000000fe004e
:102588000080fa00000006000000fa0000002100a8
:102598008007780080012100000188000080fa008f
:1025a800000006000000fa00c3e8a80000000000d0
:1025b800000000000080fa00000006000000fa0099
:1025c8000dff0700c5ff070095fd0700f5ff070091
:1025d800a8ff07000080fa0000000600f03fb100e5
:1025e8000180b10006003500ee030900000000007c
:1025f800403fb1000180b100fbff3d001000b0007a
:10260800203fb000020035000080090000000000f3
:1026180000000600809fbe00ec8057003100780063
:10262800008188001100780022f0b7004f00be003a
:10263800000006000000fe000000fe000000000090
:0826480000000000000000008a
:020000040000fa
:102650000000fa00fbe1a8000080fa00000006007c
:102660000000fa00fbe1a9000080fa00000006006b
:102670000000fa00fae1a8000080fa00000006005d
:102680000000fa00fae1a9000080fa00000006004c
:102690000000fa00d00f800011800a000000000046
:1026a0000080fb0000f0a7000000ea000000ea0044
:1026b0004f00de00004078000080fa0000000600b5
:1026c0000000fa00d00f800000800a000000000027
:1026d0000080fb0000f0a7000000ea000000ea0014
:1026e0004f00de00004078000080fa000000060085
:1026f0000000fa00d00f800099800a00000000005e
:102700000080fb0000f0a7000000ea000000ea00e3
:102710004f00de00004078000080fa000000060054
:102720000000fa00d00f800088800a00000000003e
:102730000080fb0000f0a7000000ea000000ea00b3
:102740004f00de00004078000080fa000000060024
:102750000400fa00100798000040eb00004f7800da
:102760001e0090000000e00003003200e10f500066
:102770000b00320014003700c00e800000800a00f9
:10278000000000000080fb0000f0a7000000ea004d
:102790000000ea004f00de00004f78000a0037001a
:1027a000c00e800011800a00000000000080fb00c5
:1027b00000f0a7000000ea000000ea004f00de0081
:1027c000004f7800000000001e4078000080fa00f2
:1027d000000006000400fa00100798000040eb001b
:1027e000004f78001e0090000000e000030032005f
:1027f000e10f50000900320010003700c00e8000c9
:102800006100600000f0a7000000ea000000e9009d
:102810004f00de00004f780008003700c00e800037
:102820006200600000f0a7000000ea000000e9007c
:102830004f00de00004f7800000000001e407800ce
:102840000080fa00000006000000fa0000082000e6
:10285000900e8800fa21ef00a16821000000eb0033
:102860001201070001692100100020000f0107007c
:10287000806a21002d010700006c2100370107004c
:10288000806d210041010700006f21004b0107000e
:102890008070210055010700007221005f010700d0
:1028a0001048a9003048a8001068a9003068a800a6
:1028b0001148a9003148a8001168a9003168a80092
:1028c0001188a9003188a8001028a9003028a80084
:1028d0001248a9003248a80011a8a90031a8a800f0
:1028e0000080fa00000006000000fa00d221ef008c
:1028f000fa21ef003048a9001048a9003068a9006b
:102900001068a9003148a9001148a9003168a90040
:102910001168a9003188a9001188a9003028a900f0
:102920001028a9003248a9001248a90031a8a9001e
:1029300011a8a9000080fa00000006000000fa00bb
:102940006ef707000080fa00000006000000fa00a1
:10295000408d2800012020000001be008000eb0017
:10296000100020003ff707000080fa00000006007a
:102970000000fa00d321a8000080fa000000060041
:102980000000fa00a00e800088800a00000000000d
:102990000080fb0000f0a7000000ea000000ea0051
:1029a0004f00de00004078000080fa0000000600c2
:1029b0000000fa00d321a9000080fa000000060000
:1029c0000000fa00a00e800099800a0000000000bc
:1029d0000080fb0000f0a7000000ea000000ea0011
:1029e0004f00de00004078000080fa000000060082
:1029f0000000fa00d301a8000080fa0000000600e1
:102a00000000fa00d301a9000080fa0000000600cf
:102a10000200fa00a10e8000000024000080600087
:102a20000000e000030032000000eb00000f78001f
:102a30000200370010002000000f78001e00780010
:102a40000080fa00000006000200fa00000f780083
:102a50001e0078000000e00003003a00d5c1a90084
:102a60000000000001003700000000000080fa00b4
:102a7000000006000200fa0030002000000f78007d
:102a8000a10e800000002800008060000000e0002f
:102a90000300320040002000000f780016003700cd
:102aa000a00e8000dc800a00000000000080fb0017
:102ab000e10f500007003200e20f50000800320022
:102ac0000000e00009003a000000eb00000f780071
:102ad0000900370020002000000f780006003700b2
:102ae00010002000000f78000300370030002000a5
:102af000000f7800000000001e0078000080fa003f
:102b0000000006000600fa00100798002107980050
:102b10000000eb00000f78000e003700e8fe070011
:102b20000004a2000004e0000e003200e10f80006b
:102b30001e009000010878001e0090000080e80050
:102b4000100798002e0090000000e9002007980070
:102b50001e0fe8002e0090000000e000efff3a009a
:102b600001003700000000001e0078000080fa001d
:102b7000000006000600fa001007980021079800e0
:102b80000000eb00000f78000e003700d8fe0700b1
:102b90000004a2000004e0000e0032001e009000bd
:102ba00010007800f00f88001e0090000080e80000
:102bb000100798002e0090000000e9002007980000
:102bc0001e0fe8002e0090000000e000efff3a002a
:102bd00001003700000000001e0078000080fa00ad
:102be000000006000600fa00100798002107980070
:102bf0000040eb00004f78001e0090000000e00055
:102c00000d003a000000eb00f2fe07000004e000b7
:102c1000060032002e00900010007800d00e8800d0
:102c200010c0b300004f7800040037000040eb00f4
:102c3000004f780001003700000000001e407800bf
:102c40000080fa00000006000600fa001007980055
:102c5000210798000040eb00004f78001e00900014
:102c6000e10f50000d003a0010002000b8fe0700f0
:102c70000004e00006003200e10e80002e0090000b
:102c80000108780010c0b300004f7800040037003e
:102c90000040eb00004f780001003700000000000a
:102ca0001e4078000080fa00000006000400fa00d0
:102cb000000f7800110798001e0078000000e00067
:102cc00003003200e10f5000070032000f00370010
:102cd0001e0090000000e000090032009e009000fd
:102ce00001808800090037001e0090000000e0000d
:102cf000050032009e00900011808800030037001c
:102d00000000000001003700000000000080fa0011
:102d1000000006000000fa000080fa000000060033
:102d20000000fa000080fa00000006000200fa002d
:102d3000000f78001e0078000000e0000200320062
:102d40009e007800218088000080fa0000000600c4
:102d50000000fa000080fa00000006000200fa00fd
:102d6000000f78001e0078000000e0000200320032
:102d70009e007800318088000080fa000000060084
:102d80000000fa000080fa00000006000200fa00cd
:102d9000000f78001e0078000000e0000200320002
:102da0009e007800418088000080fa000000060044
:102db0000000fa000080fa00000006000200fa009d
:102dc000000f78001e0078000000e00002003200d2
:102dd0009e007800518088000080fa000000060004
:102de0000000fa000080fa00000006000200fa006d
:102df000000f78001e0078000000e00002003200a2
:102e00009e007800618088000080fa0000000600c3
:102e10000000fa000080fa00000006000200fa003c
:102e2000000f78001e0078000000e0000200320071
:102e30009e007800718088000080fa000000060083
:102e40000000fa000080fa00000006000000fa000e
:102e50003822ef0000802000d011880000082000f8
:102e6000e0118800e0022000f0118800101a200014
:102e7000001288004222ef0039e2a80038a2a80020
:102e80003882a8000080fa00000006000000fa0066
:102e90003822ef003a22ef0000082000e0118800fd
:102ea000e0022000f01188004022ef004222ef00f3
:102eb0000080fa00000006000000fa000000000098
:102ec000f0118000620060000000e000fcff3a00aa
:102ed000e0118000620060000000e00001003200ac
:102ee0003c22a90020128000004078000080fa00f7
:102ef000000006000200fa00004f78000000000009
:102f0000f0118000700060000000e000fcff3a005b
:102f10001e80fb00401288000080fa0000000600be
:102f20000000fa00f01180006200600000f0a700cd
:102f30000000ea000000e9004f00de0000407800d9
:102f40000080fa00000006000000fa00f011800086
:102f5000700060000000e00007003a00c11180002e
:102f600000022000008060000000e000020032004b
:102f700010002000010037000000eb000040780046
:102f80000080fa00000006000000fa00e111800055
:102f900000082000008060000000e0000700320010
:102fa000f111800000022000008060000000e000bd
:102fb0000200320010002000010037000000eb008a
:102fc000004078000080fa00000006000000fa00cf
:102fd00038a2a8000080fa00000006000000fa00f5
:102fe00038a2a9000080fa00000006000200fa00e2
:102ff000004f78005cc2a9001e80fb0061006000e9
:103000004200dd00e11280000120a10001007000fb
:10301000e01288001e80fb00610060004600dd00b9
:10302000c11180000160a10001007000c011880082
:103030000080fa00000006000000fa00c0118000c5
:1030400066800a00000000000080fb0000f0a7007e
:103050000000ea000000ea004f00de0000407800b7
:103060000080fa00000006000000fa00e012800074
:1030700022800a00000000000080fb0000f0a70092
:103080000000ea000000ea004f00de000040780087
:103090000080fa00000006000000fa001e30ef0079
:1030a000e0118000680060000000e00003003200d2
:1030b000f08080000000a000f0808800e111800016
:1030c00000042000008060000000e00003003200e7
:1030d000f08080000010a000f0808800e0118000e7
:1030e000620060000000e00004003200f080800018
:1030f0000020a000f08088003c22a900e0118000a0
:10310000610060000000e00004003200f0808000f8
:103110000030a000f08088003c02a900e11180008e
:1031200000022000008060000000e0000400320087
:10313000f08080000040a000f08088003ca2a90040
:10314000f08080000080fa00000006000400fa0011
:10315000008fbe001e007800001288001e00be0016
:103160004008de00000078006f0060001012880048
:103170000080fa00000006000400fa00101280002f
:103180008000eb00008fbe001e00be00c001dd000d
:1031900002002000001280008000eb00001f710080
:1031a000019771001e00be000080fa0000000600ba
:1031b0000800fa0020079800310798002e019000bf
:1031c000be0190003000200001002000800f51005f
:1031d000818f59000e0036002e009000be00900036
:1031e000e00f5000e08f5800090032003b62a80059
:1031f00038e2a9002e019000be019000009020004e
:10320000d1032000d5f60700008fbe001000370064
:103210003b62a90038e2a8002e019000be01900098
:103220004218dd00ce10de00810070004210dd008b
:103230000001be0000902000d1032000c7f6070067
:103240000081eb008081eb00021f400003974800e3
:103250001e007800001288001e00be004008de003c
:10326000000078006f006000101288000080fa00f3
:10327000000006000800fa00bfff070020079800c2
:1032800031079800d111800000802000008060008c
:103290000000e0000c0032002e009000be00900004
:1032a000e00f5000e08f5800070032002e01900020
:1032b000be01900000902000d1032000a7f6070077
:1032c000008fbe0020003700c111800000082000e0
:1032d000008060000000e0000e0032002e00900030
:1032e000be00900061014000e08148004218dd000e
:1032f000ce10de00810070004210dd000001be0033
:1033000000902000d103200094f60700008fbe003b
:103310000d0037002e009000be00900061014000bb
:10332000e08148004418dd00cc10de008100700010
:103330004410dd000001be0000902000d1032000f9
:1033400086f60700008fbe001e00be000080fa0057
:10335000000006000a00fa00e402070000438400af
:1033600000000100104384000000010000902000d4
:10337000d1032000f50207004c0007007000070091
:10338000e06c28003c0007000000eb0020079800dc
:103390000040eb00004f7800a10e8000110798005c
:1033a000e06d2800340007001e0090008a0007002e
:1033b000c06e280030000700a10e80000000280029
:1033c000008060000000e0000200320010c3b30083
:1033d0000100370000c3b300c6fe0700506f28008d
:1033e00025000700a00e8000dc800a00000000001d
:1033f0000043b00060479800d0c0b3007047980009
:10340000a0c0b300004f98000040eb00104f9800a0
:1034100066004700180007002044840000000100f7
:103420000004a2000004e0000d003200f24384001a
:103430006400470011002000020001002e009000ef
:103440004800de00004f78001e407800a9fe07000b
:103450002e009000004f78001e407800a5fe070067
:10346000120007003600070000902000d103200062
:10347000b6020700e8ff37000200fa00000f7800ec
:10348000040037001e007800104078001e0fe8008e
:1034900098fe07001e007800104078000004e0004d
:1034a000f8ff3a000080fa00000006000200fa006f
:1034b00070fd0700000f78001e007800e30f500039
:1034c00003003a00e06f2800ebff07001a00370006
:1034d0001e007800e40f500003003a0060712800dd
:1034e000e5ff0700140037001e0078000000e00030
:1034f00003003a00f0722800dfff07000e003700db
:103500001e007800e20f500003003a00b07428005b
:10351000d9ff0700080037001e007800e10f5000b7
:1035200003003a0050762800d3ff0700020037005e
:1035300000782800d0ff07000080fa000000060095
:103540000200fa00a043840000000100000f780090
:103550001e007800e30f500003003a008079280035
:10356000c5ff07001a0037001e007800e40f500066
:1035700003003a00407b2800bfff0700140037001b
:103580001e0078000000e00003003a00107d2800d3
:10359000b9ff07000e0037001e007800e20f500050
:1035a00003003a00107f2800b3ff0700080037002f
:1035b0001e007800e10f500003003a00f080280060
:1035c000adff070002003700e0822800aaff0700d5
:1035d0000080fa00000006001c00fa00500f98005e
:1035e000e9004700a284280010000900b2587800c2
:1035f0000000eb00000f78000c00370031002000c5
:103600001e805000de089000ef806000e9804000de
:10361000eec078000080e800017778005e08900036
:103620004400de00500f98001e0fe8001e007800d6
:10363000e30f5000f1ff3400d0c0b30060479800a2
:10364000a0c0b300704798000040eb00004f980006
:103650000e80e80088ff07000080fa0000000600e6
:103660000400fa00100798000040eb00004f7800bb
:103670001e0090000000e00002003d0010c0b300fa
:10368000004f78001e4078000080fa00000006001d
:103690000400fa00100798000040eb00004f78008b
:1036a0009e00900000002400008060000000e00008
:1036b0000200320010c0b300004f78001e407800b6
:1036c0000080fa00000006000400fa0010079800cd
:1036d0000040eb00004f78009e009000002020008a
:1036e000008060000000e0000200320010c0b30063
:1036f000004f78001e4078000080fa0000000600ad
:103700000400fa00100798000040eb00004f78001a
:103710009e00900000082000008060000000e00093
:103720000200320010c0b300004f78001e40780045
:103730000080fa00000006000400fa00100798005c
:103740000040eb00004f78009e0090000004200035
:10375000008060000000e0000200320010c0b300f2
:10376000004f78001e4078000080fa00000006003c
:103770000400fa00100798000040eb00004f7800aa
:103780001e009000700060000000e00002003200a7
:1037900010c0b300004f78001e4078000080fa008f
:1037a000000006000200fa00000f78009e80ea0088
:1037b000007c800000806000007c88000080fa00af
:1037c000000006000000fa00007c80000080fa0083
:1037d000000006000200fa00faff0700000f780060
:1037e0001e0078009eff07000004e0000200320087
:1037f00000002800ebff07001e007800a4ff070070
:103800000004e0000200320000002400e5ff070091
:103810001e007800acff07000004e0000200320048
:1038200000202000dfff07001e007800b4ff070023
:103830000004e0000200320000082000d9ff070069
:103840001e007800bcff07000004e0000200320008
:1038500000042000d3ff07001e007800c4ff07000b
:103860000004e0000200320000012000cdff07004c
:103870000080fa00000006000000fa00802fef0030
:103880000080fa00000006000000fa00c3e8a8006b
:1038900000000000000000000080fa0000000600a8
:1038a0000000fa00c3e8a9000000000000000000ca
:1038b0000080fa00000006000000fa00f8ff070090
:1038c00061010700f0ff0700c0d32100610007007d
:1038d00025a8a8000080fa00000006000000fa00f9
:1038e00000002800e00288000080fa0000000600c6
:1038f0000000fa00000024000003880010c0b3009c
:1039000010f0b7000080fa00000006000000fa0086
:103910001070ef00000000004003800061006000b4
:103920000000e000fcff320080002000200388003f
:103930000080fa00000006000200fa000040eb00e0
:10394000004f780040038000610060000040780074
:103950000004e0000200320010c0b300004f780005
:103960001e4078000080fa00000006000000fa0007
:1039700010d0bf000080fa00000006000400fa002a
:103980006000b800008fbe00b00380008000eb0034
:10399000c000dd0000002000008fbe00a0038000fa
:1039a0008000eb003e017000ae8170000200be009e
:1039b0000080fa00000006000400fa006000b80071
:1039c000008fbe00d00380008000eb00c000dd004f
:1039d00000002000008fbe00c00380008000eb00cc
:1039e0003e017000ae8170000200be000080fa004f
:1039f000000006000200fa000000eb00000f780053
:103a000041038000100e2000008f60001e0078002f
:103a10000080fa00000006000400fa006000b80010
:103a2000008fbe00700380008000eb00c000dd004e
:103a300000002000008fbe00600380008000eb00cb
:103a40003e017000ae8170000200be000080fa00ee
:103a5000000006000200fa00000f78001e00780047
:103a60000000e000020032009e007800b180880073
:103a70000080fa00000006000000fa000080fa0052
:103a8000000006000000fa00b1428000f0f82f00ac
:103a9000008060000040a000b04288000144800027
:103aa000f08f2f00008060000080a000004488009c
:103ab00001448000f0ff28000080600000c0a000ea
:103ac0000044880021448000f08f2f0000806000b7
:103ad0000080a000204488003144800080ff2f0037
:103ae000008060000000a000304488000144800095
:103af000f0f82f00008060000040a0000044880023
:103b000021448000f0ff28000080600000c0a00079
:103b10002044880041448000f08f2f000080600026
:103b20000080a0004044880031448000f0f82f005d
:103b3000008060000040a000304488000080fa004f
:103b4000000006000000fa00b1428000f0f82f00eb
:103b5000008060000060a000b04288000144800046
:103b6000f08f2f000080600000a0a00000448800bb
:103b700001448000f0ff28000080600000e0a00009
:103b80000044880021448000f08f2f0000806000f6
:103b900000a0a000204488003144800080ff2f0056
:103ba000008060000020a0003044880001448000b4
:103bb000f0f82f00008060000060a0000044880042
:103bc00021448000f0ff28000080600000e0a00099
:103bd0002044880041448000f08f2f000080600066
:103be00000a0a0004044880031448000f0f82f007d
:103bf000008060000060a000304488000080fa006f
:103c0000000006000000fa00217c80000000270070
:103c10008080600000002100808f5000060032008c
:103c2000217c8000000027008080600000002300cd
:103c3000808f50001c003a0085cfbf008080fb00c1
:103c400080ff2f000081600080072000a109200074
:103c500053f8200080497800814978008249780033
:103c600012002000600420007105200043f82000ad
:103c7000804978008149780082497800000000007e
:103c8000207c8000610060000000e000fcff3a0042
:103c900000000000217c8000000220000080600005
:103ca0000000e000fbff320010002300307c8800a1
:103cb00060092000407c88008c2fef001004200059
:103cc000507c880010102000707c88006009200063
:103cd000807c880010042000907c88000050200028
:103ce000d07c8800b82fef00ba2fef00be2fef0076
:103cf000002def00a42fef00a62fef00a82fef005c
:103d0000aa2fef00ae2fef00b02fef00b22fef0081
:103d10000001eb0080072000a109200053f82000db
:103d20008049780081497800824978000001eb00e1
:103d3000600420007105200043f8200080497800cd
:103d400081497800824978000080fa00000006006e
:103d50000000fa00707c8000ee800a000000000085
:103d60000080fb0000f0a7000000ea000000ea006d
:103d70004f00de00004078000080fa0000000600de
:103d80000000fa00062eef000004200010718800e9
:103d9000f001200010708800f0fb2f00f070880008
:103da0000a2eef00262eef000c2eef00282eef003b
:103db000082eef00242eef00f00120000070880094
:103dc00070382000e07088000000eb0051052000f2
:103dd000b1468800a10a2000b1468800006888002a
:103de00050c2b30028edb700316c800000fc2f00fa
:103df000008060000000a000306c8800008020007f
:103e000051052000b1468800a10a2000b146880073
:103e1000006888000080fa00000006000000fe0034
:103e20000c1d020000000000821f780092808000bc
:103e30000000110002002000810019004f017800ed
:103e4000000006000000fe00801f7800811f78003f
:103e5000821f780060038000801f78000c1d020024
:103e6000000000004f017800020150000201e9004b
:103e7000928088004f017800cf0078004f007800d2
:043e80000000060038
:020000040000fa
:103e84001010000008000000800000000010000076
:103e9400100000008000000020100000200000003e
:103ea400800000001c1000000200000082000000de
:103eb400ffff000018100000040000008000000054
:103ec4001e1000000200000080000000000000003e
:020000040000fa
:103ed4000000fa00c3e8a800000000000000000091
:103ee4000080fa00000006000000fa0044ff07000a
:103ef400a2ff07006ffe070052fa0700d2fb07007b
:103f0400f3ff0700defe07000080fa000000060051
:103f14000200fa00000f78009e007800e18088001b
:103f24000000fe000080fa00000006000000fa0015
:103f3400000221008007780080032100000188002e
:083f44000080fa0000000600f5
:020000040000fa
:103f4c00f03fb1000180b10006003500ee0309001e
:103f5c0000000000403fb1000180b100fbff3d00bc
:103f6c001000b000203fb0000200350000800900b6
:083f7c00000000000000060037
:020000040000fa
:103f8400809fbe00ec80570031007800c08088001c
:103f9400110078001af0b7004f00be0000000600c0
:020000040000fa
:020000040001f9
:045e0000ffffff00a1
:020000040000fa
:020000040001f9
:045e2000ffffff0081
:020000040000fa
:020000040001f9
:045e300078ffff00f8
:020000040000fa
:020000040001f9
:045e3800bbffff00ad
:020000040000fa
:020000040001f9
:045e4000f453ff0018
:020000040000fa
:020000040001f9
:045e5000deffff0072
:020000040000fa
:020000040001f9
:045e58000000ff0047
:020000040000fa
:020000040001f9
:045e60000000ff003f
:020000040000fa
:020000040001f9
:045e68000000ff0037
:020000040000fa
:020000040001f9
:045e70000000ff002f
:020000040000fa
:020000040001f9
:045e7800ffffff0029
:020000040000fa
:020000040001f9
:045e8000ffffff0021
:020000040000fa
:020000040001f9
:045e8800ffffff0019
:020000040000fa
:020000040001f9
:045e9000feffff0012
:020000040000fa
:020000040001f9
:045e980010ffff00f8
:020000040000fa
:020000040001f9
:045ea000ffffff0001
:020000040000fa
:020000040001f9
:045ea800fcffff00fc
:020000040000fa
:020000040001f9
:045eb000feffff00f2
:020000040000fa
:020000040001f9
:045ec000fff7ff00e9
:020000040000fa
:020000040001f9
:045ed000ffffff00d1
:020000040000fa
:020000040001f9
:045ee000ffffff00c1
:020000040000fa
:020000040001f9
:045ef000ffffff00b1
:020000040000fa
:020000040001f9
:045f00007fffff0020
:020000040000fa
:020000040001f9
:045f08003fffff0058
:020000040000fa
:020000040001f9
:045f1000f453ff0047
:020000040000fa
:020000040001f9
:045f2000ffffff0080
:020000040000fa
:020000040001f9
:045f2800ff7fff00f8
:020000040000fa
:020000040001f9
:045f3000ffffff0070
:00000001FF
